:1008850020202057454C434F4D4520544F202020D4
:10089500002020204D592050524F4A4543542020D6
:1008A50020002020204932432020200020202050F5
:1008B500524F544F434F4C20202000493243505251
:0B08C5004F544F434F4C20522F570060
:100800001209797BFF7A0879851209217FC01209C4
:10081000AB7BFF7A0879961209217FE87EFD1209E9
:100820004E7F011209AB7F801209AB7BFF7A0879FA
:10083000A71209217FC01209AB7BFF7A0879B11298
:1008400009217FE87EFD12094E7F011209AB7F80EE
:100850001209AB7BFF7A0879C012092112098D7F3A
:10086000A01208D0E4FF1208D012098D7FA112084F
:10087000D01208FA8F087FC01209ABAF081209B96D
:0508800012099C80FE3E
:100979007F381209AB7F0C1209AB7F011209AB7FDB
:04098900800209AB34
:08094600D2B1D2B07F057E00A2
:10094E00E4FDFCC3ED9FEC9E50070DBD00010C8035
:01095E00F2A6
:01095F002275
:0E09AB00C2A08F90D2A112094AC2A102094E29
:0E09B900D2A08F90D2A112094AC2A102094E0B
:100921008B098A0A890BAB09AA0AA90B1209606013
:1009310013050BE50B7002050A14F9120960FF1289
:0509410009B980E2226B
:0F098D00D2B0D2B112094AC2B112094EC2B02281
:0F099C00C2B0C2B112094AD2B012094ED2B12272
:0208D000AB0774
:1008D200E4FAEB30E703D38001C392B1120948C2B4
:1008E200B0EB25E0FB0ABA08E912094620B1FDC2C5
:0808F200B07F057E0002094EF3
:1008FA00E4FBFA12094AD2B012094EA2B19200EBF5
:10090A0025E0FBA200E4334203C2B00ABA08E412AB
:06091A000946C2B0AF0364
:0109200022B4
:030000000209C72B
:0C09C700787FE4F6D8FD7581200208005E
:10096000BB010689828A83E0225002E722BBFE0295
:09097000E32289828A83E49322C8
:00000001FF
